{
  "_format": "hh-sol-artifact-1",
  "contractName": "VotingContract",
  "sourceName": "contracts/VotingContract.sol",
  "abi": [
    {
      "inputs": [],
      "stateMutability": "nonpayable",
      "type": "constructor"
    },
    {
      "anonymous": false,
      "inputs": [
        {
          "indexed": true,
          "internalType": "uint256",
          "name": "candidateId",
          "type": "uint256"
        },
        {
          "indexed": false,
          "internalType": "string",
          "name": "age",
          "type": "string"
        },
        {
          "indexed": false,
          "internalType": "string",
          "name": "name",
          "type": "string"
        },
        {
          "indexed": false,
          "internalType": "string",
          "name": "image",
          "type": "string"
        },
        {
          "indexed": false,
          "internalType": "uint256",
          "name": "voteCount",
          "type": "uint256"
        },
        {
          "indexed": false,
          "internalType": "address",
          "name": "_address",
          "type": "address"
        },
        {
          "indexed": false,
          "internalType": "string",
          "name": "ipfs",
          "type": "string"
        }
      ],
      "name": "CandidateCreate",
      "type": "event"
    },
    {
      "anonymous": false,
      "inputs": [
        {
          "indexed": true,
          "internalType": "uint256",
          "name": "voter_voterId",
          "type": "uint256"
        },
        {
          "indexed": false,
          "internalType": "string",
          "name": "voter_name",
          "type": "string"
        },
        {
          "indexed": false,
          "internalType": "string",
          "name": "voter_image",
          "type": "string"
        },
        {
          "indexed": false,
          "internalType": "address",
          "name": "voter_address",
          "type": "address"
        },
        {
          "indexed": false,
          "internalType": "uint256",
          "name": "voter_allowed",
          "type": "uint256"
        },
        {
          "indexed": false,
          "internalType": "bool",
          "name": "voter_voted",
          "type": "bool"
        },
        {
          "indexed": false,
          "internalType": "uint256",
          "name": "voter_vote",
          "type": "uint256"
        },
        {
          "indexed": false,
          "internalType": "string",
          "name": "voter_ipfs",
          "type": "string"
        }
      ],
      "name": "VoterCreated",
      "type": "event"
    },
    {
      "inputs": [
        {
          "internalType": "address",
          "name": "_address",
          "type": "address"
        },
        {
          "internalType": "string",
          "name": "_name",
          "type": "string"
        },
        {
          "internalType": "string",
          "name": "_image",
          "type": "string"
        },
        {
          "internalType": "string",
          "name": "_ipfs",
          "type": "string"
        }
      ],
      "name": "VoteRight",
      "outputs": [],
      "stateMutability": "nonpayable",
      "type": "function"
    },
    {
      "inputs": [],
      "name": "_candidateId",
      "outputs": [
        {
          "internalType": "uint256",
          "name": "_value",
          "type": "uint256"
        }
      ],
      "stateMutability": "view",
      "type": "function"
    },
    {
      "inputs": [],
      "name": "_voterId",
      "outputs": [
        {
          "internalType": "uint256",
          "name": "_value",
          "type": "uint256"
        }
      ],
      "stateMutability": "view",
      "type": "function"
    },
    {
      "inputs": [
        {
          "internalType": "uint256",
          "name": "",
          "type": "uint256"
        }
      ],
      "name": "candidateAddress",
      "outputs": [
        {
          "internalType": "address",
          "name": "",
          "type": "address"
        }
      ],
      "stateMutability": "view",
      "type": "function"
    },
    {
      "inputs": [
        {
          "internalType": "address",
          "name": "",
          "type": "address"
        }
      ],
      "name": "candidates",
      "outputs": [
        {
          "internalType": "uint256",
          "name": "candidateId",
          "type": "uint256"
        },
        {
          "internalType": "string",
          "name": "age",
          "type": "string"
        },
        {
          "internalType": "string",
          "name": "name",
          "type": "string"
        },
        {
          "internalType": "string",
          "name": "image",
          "type": "string"
        },
        {
          "internalType": "uint256",
          "name": "voteCount",
          "type": "uint256"
        },
        {
          "internalType": "address",
          "name": "_address",
          "type": "address"
        },
        {
          "internalType": "string",
          "name": "ipfs",
          "type": "string"
        }
      ],
      "stateMutability": "view",
      "type": "function"
    },
    {
      "inputs": [],
      "name": "geVotedVoterList",
      "outputs": [
        {
          "internalType": "address[]",
          "name": "",
          "type": "address[]"
        }
      ],
      "stateMutability": "view",
      "type": "function"
    },
    {
      "inputs": [],
      "name": "geVoterList",
      "outputs": [
        {
          "internalType": "address[]",
          "name": "",
          "type": "address[]"
        }
      ],
      "stateMutability": "view",
      "type": "function"
    },
    {
      "inputs": [
        {
          "internalType": "address",
          "name": "_address",
          "type": "address"
        }
      ],
      "name": "getCandidateData",
      "outputs": [
        {
          "internalType": "uint256",
          "name": "",
          "type": "uint256"
        },
        {
          "internalType": "string",
          "name": "",
          "type": "string"
        },
        {
          "internalType": "string",
          "name": "",
          "type": "string"
        },
        {
          "internalType": "string",
          "name": "",
          "type": "string"
        },
        {
          "internalType": "uint256",
          "name": "",
          "type": "uint256"
        },
        {
          "internalType": "address",
          "name": "",
          "type": "address"
        },
        {
          "internalType": "string",
          "name": "",
          "type": "string"
        }
      ],
      "stateMutability": "view",
      "type": "function"
    },
    {
      "inputs": [],
      "name": "getCandidateLength",
      "outputs": [
        {
          "internalType": "uint256",
          "name": "",
          "type": "uint256"
        }
      ],
      "stateMutability": "view",
      "type": "function"
    },
    {
      "inputs": [],
      "name": "getCandidates",
      "outputs": [
        {
          "internalType": "address[]",
          "name": "",
          "type": "address[]"
        }
      ],
      "stateMutability": "view",
      "type": "function"
    },
    {
      "inputs": [
        {
          "internalType": "address",
          "name": "_voter",
          "type": "address"
        }
      ],
      "name": "getVoterData",
      "outputs": [
        {
          "internalType": "uint256",
          "name": "",
          "type": "uint256"
        },
        {
          "internalType": "string",
          "name": "",
          "type": "string"
        },
        {
          "internalType": "string",
          "name": "",
          "type": "string"
        },
        {
          "internalType": "address",
          "name": "",
          "type": "address"
        },
        {
          "internalType": "bool",
          "name": "",
          "type": "bool"
        },
        {
          "internalType": "uint256",
          "name": "",
          "type": "uint256"
        },
        {
          "internalType": "string",
          "name": "",
          "type": "string"
        }
      ],
      "stateMutability": "view",
      "type": "function"
    },
    {
      "inputs": [],
      "name": "getVoterLenght",
      "outputs": [
        {
          "internalType": "uint256",
          "name": "",
          "type": "uint256"
        }
      ],
      "stateMutability": "view",
      "type": "function"
    },
    {
      "inputs": [
        {
          "internalType": "address",
          "name": "_address",
          "type": "address"
        },
        {
          "internalType": "string",
          "name": "_age",
          "type": "string"
        },
        {
          "internalType": "string",
          "name": "_name",
          "type": "string"
        },
        {
          "internalType": "string",
          "name": "_image",
          "type": "string"
        },
        {
          "internalType": "string",
          "name": "_ipfs",
          "type": "string"
        }
      ],
      "name": "setCandidate",
      "outputs": [],
      "stateMutability": "nonpayable",
      "type": "function"
    },
    {
      "inputs": [
        {
          "internalType": "address",
          "name": "_candidateAddress",
          "type": "address"
        },
        {
          "internalType": "uint256",
          "name": "_candidateVoteId",
          "type": "uint256"
        }
      ],
      "name": "vote",
      "outputs": [],
      "stateMutability": "nonpayable",
      "type": "function"
    },
    {
      "inputs": [
        {
          "internalType": "uint256",
          "name": "",
          "type": "uint256"
        }
      ],
      "name": "votedAddress",
      "outputs": [
        {
          "internalType": "address",
          "name": "",
          "type": "address"
        }
      ],
      "stateMutability": "view",
      "type": "function"
    },
    {
      "inputs": [
        {
          "internalType": "uint256",
          "name": "",
          "type": "uint256"
        }
      ],
      "name": "votedVoters",
      "outputs": [
        {
          "internalType": "address",
          "name": "",
          "type": "address"
        }
      ],
      "stateMutability": "view",
      "type": "function"
    },
    {
      "inputs": [
        {
          "internalType": "address",
          "name": "",
          "type": "address"
        }
      ],
      "name": "voters",
      "outputs": [
        {
          "internalType": "uint256",
          "name": "voter_voterId",
          "type": "uint256"
        },
        {
          "internalType": "string",
          "name": "voter_name",
          "type": "string"
        },
        {
          "internalType": "string",
          "name": "voter_image",
          "type": "string"
        },
        {
          "internalType": "address",
          "name": "voter_address",
          "type": "address"
        },
        {
          "internalType": "uint256",
          "name": "voter_allowed",
          "type": "uint256"
        },
        {
          "internalType": "bool",
          "name": "voter_voted",
          "type": "bool"
        },
        {
          "internalType": "uint256",
          "name": "voter_vote",
          "type": "uint256"
        },
        {
          "internalType": "string",
          "name": "voter_ipfs",
          "type": "string"
        }
      ],
      "stateMutability": "view",
      "type": "function"
    },
    {
      "inputs": [],
      "name": "votingOrganizer",
      "outputs": [
        {
          "internalType": "address",
          "name": "",
          "type": "address"
        }
      ],
      "stateMutability": "view",
      "type": "function"
    }
  ],
  "bytecode": "0x608060405234801561001057600080fd5b5033600260006101000a81548173ffffffffffffffffffffffffffffffffffffffff021916908373ffffffffffffffffffffffffffffffffffffffff160217905550612772806100616000396000f3fe608060405234801561001057600080fd5b50600436106101165760003560e01c80638fb4cd80116100a2578063b9be315211610071578063b9be315214610322578063c691b67714610340578063c91ec71214610370578063cfca506e1461038c578063f7522a83146103aa57610116565b80638fb4cd801461027b578063a3ec138d146102b1578063a6636ad1146102e8578063a73889671461030457610116565b80635cc48aa7116100e95780635cc48aa7146101bd5780635f74bbde146101db5780637831ffb3146101f75780637f45e914146102275780638ab66a901461024557610116565b806306a49fce1461011b5780631de5516b146101395780632a466ac7146101575780633a88251a1461018d575b600080fd5b6101236103c8565b6040516101309190611959565b60405180910390f35b610141610456565b60405161014e9190611994565b60405180910390f35b610171600480360381019061016c91906119ef565b610463565b6040516101849796959493929190611abb565b60405180910390f35b6101a760048036038101906101a29190611b72565b61073b565b6040516101b49190611b9f565b60405180910390f35b6101c561077a565b6040516101d29190611b9f565b60405180910390f35b6101f560048036038101906101f09190611bba565b6107a0565b005b610211600480360381019061020c9190611b72565b610967565b60405161021e9190611b9f565b60405180910390f35b61022f6109a6565b60405161023c9190611959565b60405180910390f35b61025f600480360381019061025a91906119ef565b610a34565b6040516102729796959493929190611abb565b60405180910390f35b610295600480360381019061029091906119ef565b610cb6565b6040516102a89796959493929190611c15565b60405180910390f35b6102cb60048036038101906102c691906119ef565b61107e565b6040516102df989796959493929190611c99565b60405180910390f35b61030260048036038101906102fd9190611e61565b61128b565b005b61030c611512565b6040516103199190611994565b60405180910390f35b61032a61151e565b6040516103379190611994565b60405180910390f35b61035a60048036038101906103559190611b72565b61152a565b6040516103679190611b9f565b60405180910390f35b61038a60048036038101906103859190611f1c565b611569565b005b6103946117a1565b6040516103a19190611959565b60405180910390f35b6103b261182f565b6040516103bf9190611994565b60405180910390f35b6060600380548060200260200160405190810160405280929190818152602001828054801561044c57602002820191906000526020600020905b8160009054906101000a900473ffffffffffffffffffffffffffffffffffffffff1673ffffffffffffffffffffffffffffffffffffffff1681526020019060010190808311610402575b5050505050905090565b6000600680549050905090565b6000606080606060008060606000600460008a73ffffffffffffffffffffffffffffffffffffffff1673ffffffffffffffffffffffffffffffffffffffff1681526020019081526020016000209050806000015481600101826002018360030184600401548560050160009054906101000a900473ffffffffffffffffffffffffffffffffffffffff16866006018580546104fd90612036565b80601f016020809104026020016040519081016040528092919081815260200182805461052990612036565b80156105765780601f1061054b57610100808354040283529160200191610576565b820191906000526020600020905b81548152906001019060200180831161055957829003601f168201915b5050505050955084805461058990612036565b80601f01602080910402602001604051908101604052809291908181526020018280546105b590612036565b80156106025780601f106105d757610100808354040283529160200191610602565b820191906000526020600020905b8154815290600101906020018083116105e557829003601f168201915b5050505050945083805461061590612036565b80601f016020809104026020016040519081016040528092919081815260200182805461064190612036565b801561068e5780601f106106635761010080835404028352916020019161068e565b820191906000526020600020905b81548152906001019060200180831161067157829003601f168201915b505050505093508080546106a190612036565b80601f01602080910402602001604051908101604052809291908181526020018280546106cd90612036565b801561071a5780601f106106ef5761010080835404028352916020019161071a565b820191906000526020600020905b8154815290600101906020018083116106fd57829003601f168201915b50505050509050975097509750975097509750975050919395979092949650565b6003818154811061074b57600080fd5b906000526020600020016000915054906101000a900473ffffffffffffffffffffffffffffffffffffffff1681565b600260009054906101000a900473ffffffffffffffffffffffffffffffffffffffff1681565b6000600760003373ffffffffffffffffffffffffffffffffffffffff1673ffffffffffffffffffffffffffffffffffffffff1681526020019081526020016000209050600081600401540361082a576040517f08c379a0000000000000000000000000000000000000000000000000000000008152600401610821906120b3565b60405180910390fd5b8060050160009054906101000a900460ff161561087c576040517f08c379a00000000000000000000000000000000000000000000000000000000081526004016108739061211f565b60405180910390fd5b60018160050160006101000a81548160ff0219169083151502179055508181600601819055506005339080600181540180825580915050600190039060005260206000200160009091909190916101000a81548173ffffffffffffffffffffffffffffffffffffffff021916908373ffffffffffffffffffffffffffffffffffffffff1602179055508060040154600460008573ffffffffffffffffffffffffffffffffffffffff1673ffffffffffffffffffffffffffffffffffffffff168152602001908152602001600020600401600082825461095b919061216e565b92505081905550505050565b6005818154811061097757600080fd5b906000526020600020016000915054906101000a900473ffffffffffffffffffffffffffffffffffffffff1681565b60606005805480602002602001604051908101604052809291908181526020018280548015610a2a57602002820191906000526020600020905b8160009054906101000a900473ffffffffffffffffffffffffffffffffffffffff1673ffffffffffffffffffffffffffffffffffffffff16815260200190600101908083116109e0575b5050505050905090565b6004602052806000526040600020600091509050806000015490806001018054610a5d90612036565b80601f0160208091040260200160405190810160405280929190818152602001828054610a8990612036565b8015610ad65780601f10610aab57610100808354040283529160200191610ad6565b820191906000526020600020905b815481529060010190602001808311610ab957829003601f168201915b505050505090806002018054610aeb90612036565b80601f0160208091040260200160405190810160405280929190818152602001828054610b1790612036565b8015610b645780601f10610b3957610100808354040283529160200191610b64565b820191906000526020600020905b815481529060010190602001808311610b4757829003601f168201915b505050505090806003018054610b7990612036565b80601f0160208091040260200160405190810160405280929190818152602001828054610ba590612036565b8015610bf25780601f10610bc757610100808354040283529160200191610bf2565b820191906000526020600020905b815481529060010190602001808311610bd557829003601f168201915b5050505050908060040154908060050160009054906101000a900473ffffffffffffffffffffffffffffffffffffffff1690806006018054610c3390612036565b80601f0160208091040260200160405190810160405280929190818152602001828054610c5f90612036565b8015610cac5780601f10610c8157610100808354040283529160200191610cac565b820191906000526020600020905b815481529060010190602001808311610c8f57829003601f168201915b5050505050905087565b600060608060008060006060600760008973ffffffffffffffffffffffffffffffffffffffff1673ffffffffffffffffffffffffffffffffffffffff16815260200190815260200160002060000154600760008a73ffffffffffffffffffffffffffffffffffffffff1673ffffffffffffffffffffffffffffffffffffffff168152602001908152602001600020600101600760008b73ffffffffffffffffffffffffffffffffffffffff1673ffffffffffffffffffffffffffffffffffffffff168152602001908152602001600020600201600760008c73ffffffffffffffffffffffffffffffffffffffff1673ffffffffffffffffffffffffffffffffffffffff16815260200190815260200160002060030160009054906101000a900473ffffffffffffffffffffffffffffffffffffffff16600760008d73ffffffffffffffffffffffffffffffffffffffff1673ffffffffffffffffffffffffffffffffffffffff16815260200190815260200160002060050160009054906101000a900460ff16600760008e73ffffffffffffffffffffffffffffffffffffffff1673ffffffffffffffffffffffffffffffffffffffff16815260200190815260200160002060060154600760008f73ffffffffffffffffffffffffffffffffffffffff1673ffffffffffffffffffffffffffffffffffffffff168152602001908152602001600020600701858054610ecd90612036565b80601f0160208091040260200160405190810160405280929190818152602001828054610ef990612036565b8015610f465780601f10610f1b57610100808354040283529160200191610f46565b820191906000526020600020905b815481529060010190602001808311610f2957829003601f168201915b50505050509550848054610f5990612036565b80601f0160208091040260200160405190810160405280929190818152602001828054610f8590612036565b8015610fd25780601f10610fa757610100808354040283529160200191610fd2565b820191906000526020600020905b815481529060010190602001808311610fb557829003601f168201915b50505050509450808054610fe590612036565b80601f016020809104026020016040519081016040528092919081815260200182805461101190612036565b801561105e5780601f106110335761010080835404028352916020019161105e565b820191906000526020600020905b81548152906001019060200180831161104157829003601f168201915b505050505090509650965096509650965096509650919395979092949650565b60076020528060005260406000206000915090508060000154908060010180546110a790612036565b80601f01602080910402602001604051908101604052809291908181526020018280546110d390612036565b80156111205780601f106110f557610100808354040283529160200191611120565b820191906000526020600020905b81548152906001019060200180831161110357829003601f168201915b50505050509080600201805461113590612036565b80601f016020809104026020016040519081016040528092919081815260200182805461116190612036565b80156111ae5780601f10611183576101008083540402835291602001916111ae565b820191906000526020600020905b81548152906001019060200180831161119157829003601f168201915b5050505050908060030160009054906101000a900473ffffffffffffffffffffffffffffffffffffffff16908060040154908060050160009054906101000a900460ff169080600601549080600701805461120890612036565b80601f016020809104026020016040519081016040528092919081815260200182805461123490612036565b80156112815780601f1061125657610100808354040283529160200191611281565b820191906000526020600020905b81548152906001019060200180831161126457829003601f168201915b5050505050905088565b600260009054906101000a900473ffffffffffffffffffffffffffffffffffffffff1673ffffffffffffffffffffffffffffffffffffffff163373ffffffffffffffffffffffffffffffffffffffff161461131b576040517f08c379a0000000000000000000000000000000000000000000000000000000008152600401611312906121ee565b60405180910390fd5b611325600061183c565b6000611331600061185b565b90506000600760008773ffffffffffffffffffffffffffffffffffffffff1673ffffffffffffffffffffffffffffffffffffffff168152602001908152602001600020905060008160040154146113bd576040517f08c379a00000000000000000000000000000000000000000000000000000000081526004016113b49061225a565b60405180910390fd5b60018160040181905550848160010190816113d89190612426565b50828160070190816113ea9190612426565b50858160030160006101000a81548173ffffffffffffffffffffffffffffffffffffffff021916908373ffffffffffffffffffffffffffffffffffffffff1602179055508181600001819055506103e8816006018190555060008160050160006101000a81548160ff0219169083151502179055506006869080600181540180825580915050600190039060005260206000200160009091909190916101000a81548173ffffffffffffffffffffffffffffffffffffffff021916908373ffffffffffffffffffffffffffffffffffffffff160217905550817ff5f39971dd62d9929e3a9feaa6bb77fe7c7da0001babff8a65a7e51ad0201c19868689600160006103e88a604051611502979695949392919061256e565b60405180910390a2505050505050565b60018060000154905081565b60008060000154905081565b6006818154811061153a57600080fd5b906000526020600020016000915054906101000a900473ffffffffffffffffffffffffffffffffffffffff1681565b600260009054906101000a900473ffffffffffffffffffffffffffffffffffffffff1673ffffffffffffffffffffffffffffffffffffffff163373ffffffffffffffffffffffffffffffffffffffff16146115f9576040517f08c379a00000000000000000000000000000000000000000000000000000000081526004016115f090612664565b60405180910390fd5b6000600460008773ffffffffffffffffffffffffffffffffffffffff1673ffffffffffffffffffffffffffffffffffffffff1681526020019081526020016000209050611646600161183c565b6000611652600161185b565b9050808260000181905550868260050160006101000a81548173ffffffffffffffffffffffffffffffffffffffff021916908373ffffffffffffffffffffffffffffffffffffffff160217905550858260010190816116b19190612426565b50848260020190816116c39190612426565b5060008260040181905550838260030190816116df9190612426565b50828260060190816116f19190612426565b50807fd297f12b256bb8485a6013fb5e302017018123e99a0ebb20756c09e1707b4b9087878760008c8960405161172d969594939291906126bf565b60405180910390a26003879080600181540180825580915050600190039060005260206000200160009091909190916101000a81548173ffffffffffffffffffffffffffffffffffffffff021916908373ffffffffffffffffffffffffffffffffffffffff16021790555050505050505050565b6060600680548060200260200160405190810160405280929190818152602001828054801561182557602002820191906000526020600020905b8160009054906101000a900473ffffffffffffffffffffffffffffffffffffffff1673ffffffffffffffffffffffffffffffffffffffff16815260200190600101908083116117db575b5050505050905090565b6000600380549050905090565b6001816000016000828254611851919061216e565b9250508190555050565b600081600001549050919050565b600081519050919050565b600082825260208201905092915050565b6000819050602082019050919050565b600073ffffffffffffffffffffffffffffffffffffffff82169050919050565b60006118c082611895565b9050919050565b6118d0816118b5565b82525050565b60006118e283836118c7565b60208301905092915050565b6000602082019050919050565b600061190682611869565b6119108185611874565b935061191b83611885565b8060005b8381101561194c57815161193388826118d6565b975061193e836118ee565b92505060018101905061191f565b5085935050505092915050565b6000602082019050818103600083015261197381846118fb565b905092915050565b6000819050919050565b61198e8161197b565b82525050565b60006020820190506119a96000830184611985565b92915050565b6000604051905090565b600080fd5b600080fd5b6119cc816118b5565b81146119d757600080fd5b50565b6000813590506119e9816119c3565b92915050565b600060208284031215611a0557611a046119b9565b5b6000611a13848285016119da565b91505092915050565b600081519050919050565b600082825260208201905092915050565b60005b83811015611a56578082015181840152602081019050611a3b565b60008484015250505050565b6000601f19601f8301169050919050565b6000611a7e82611a1c565b611a888185611a27565b9350611a98818560208601611a38565b611aa181611a62565b840191505092915050565b611ab5816118b5565b82525050565b600060e082019050611ad0600083018a611985565b8181036020830152611ae28189611a73565b90508181036040830152611af68188611a73565b90508181036060830152611b0a8187611a73565b9050611b196080830186611985565b611b2660a0830185611aac565b81810360c0830152611b388184611a73565b905098975050505050505050565b611b4f8161197b565b8114611b5a57600080fd5b50565b600081359050611b6c81611b46565b92915050565b600060208284031215611b8857611b876119b9565b5b6000611b9684828501611b5d565b91505092915050565b6000602082019050611bb46000830184611aac565b92915050565b60008060408385031215611bd157611bd06119b9565b5b6000611bdf858286016119da565b9250506020611bf085828601611b5d565b9150509250929050565b60008115159050919050565b611c0f81611bfa565b82525050565b600060e082019050611c2a600083018a611985565b8181036020830152611c3c8189611a73565b90508181036040830152611c508188611a73565b9050611c5f6060830187611aac565b611c6c6080830186611c06565b611c7960a0830185611985565b81810360c0830152611c8b8184611a73565b905098975050505050505050565b600061010082019050611caf600083018b611985565b8181036020830152611cc1818a611a73565b90508181036040830152611cd58189611a73565b9050611ce46060830188611aac565b611cf16080830187611985565b611cfe60a0830186611c06565b611d0b60c0830185611985565b81810360e0830152611d1d8184611a73565b90509998505050505050505050565b600080fd5b600080fd5b7f4e487b7100000000000000000000000000000000000000000000000000000000600052604160045260246000fd5b611d6e82611a62565b810181811067ffffffffffffffff82111715611d8d57611d8c611d36565b5b80604052505050565b6000611da06119af565b9050611dac8282611d65565b919050565b600067ffffffffffffffff821115611dcc57611dcb611d36565b5b611dd582611a62565b9050602081019050919050565b82818337600083830152505050565b6000611e04611dff84611db1565b611d96565b905082815260208101848484011115611e2057611e1f611d31565b5b611e2b848285611de2565b509392505050565b600082601f830112611e4857611e47611d2c565b5b8135611e58848260208601611df1565b91505092915050565b60008060008060808587031215611e7b57611e7a6119b9565b5b6000611e89878288016119da565b945050602085013567ffffffffffffffff811115611eaa57611ea96119be565b5b611eb687828801611e33565b935050604085013567ffffffffffffffff811115611ed757611ed66119be565b5b611ee387828801611e33565b925050606085013567ffffffffffffffff811115611f0457611f036119be565b5b611f1087828801611e33565b91505092959194509250565b600080600080600060a08688031215611f3857611f376119b9565b5b6000611f46888289016119da565b955050602086013567ffffffffffffffff811115611f6757611f666119be565b5b611f7388828901611e33565b945050604086013567ffffffffffffffff811115611f9457611f936119be565b5b611fa088828901611e33565b935050606086013567ffffffffffffffff811115611fc157611fc06119be565b5b611fcd88828901611e33565b925050608086013567ffffffffffffffff811115611fee57611fed6119be565b5b611ffa88828901611e33565b9150509295509295909350565b7f4e487b7100000000000000000000000000000000000000000000000000000000600052602260045260246000fd5b6000600282049050600182168061204e57607f821691505b60208210810361206157612060612007565b5b50919050565b7f6e6f20616c6c6f6177656420746f20766f740000000000000000000000000000600082015250565b600061209d601283611a27565b91506120a882612067565b602082019050919050565b600060208201905081810360008301526120cc81612090565b9050919050565b7f796f75206861766520616c726561647900000000000000000000000000000000600082015250565b6000612109601083611a27565b9150612114826120d3565b602082019050919050565b60006020820190508181036000830152612138816120fc565b9050919050565b7f4e487b7100000000000000000000000000000000000000000000000000000000600052601160045260246000fd5b60006121798261197b565b91506121848361197b565b925082820190508082111561219c5761219b61213f565b5b92915050565b7f796f7520617261206e6f7420616c6f6f6177656420746f000000000000000000600082015250565b60006121d8601783611a27565b91506121e3826121a2565b602082019050919050565b60006020820190508181036000830152612207816121cb565b9050919050565b7f686176696e67206e6f20726967687420746f2020766f74650000000000000000600082015250565b6000612244601883611a27565b915061224f8261220e565b602082019050919050565b6000602082019050818103600083015261227381612237565b9050919050565b60008190508160005260206000209050919050565b60006020601f8301049050919050565b600082821b905092915050565b6000600883026122dc7fffffffffffffffffffffffffffffffffffffffffffffffffffffffffffffffff8261229f565b6122e6868361229f565b95508019841693508086168417925050509392505050565b6000819050919050565b600061232361231e6123198461197b565b6122fe565b61197b565b9050919050565b6000819050919050565b61233d83612308565b6123516123498261232a565b8484546122ac565b825550505050565b600090565b612366612359565b612371818484612334565b505050565b5b818110156123955761238a60008261235e565b600181019050612377565b5050565b601f8211156123da576123ab8161227a565b6123b48461228f565b810160208510156123c3578190505b6123d76123cf8561228f565b830182612376565b50505b505050565b600082821c905092915050565b60006123fd600019846008026123df565b1980831691505092915050565b600061241683836123ec565b9150826002028217905092915050565b61242f82611a1c565b67ffffffffffffffff81111561244857612447611d36565b5b6124528254612036565b61245d828285612399565b600060209050601f831160018114612490576000841561247e578287015190505b612488858261240a565b8655506124f0565b601f19841661249e8661227a565b60005b828110156124c6578489015182556001820191506020850194506020810190506124a1565b868310156124e357848901516124df601f8916826123ec565b8355505b6001600288020188555050505b505050505050565b6000819050919050565b600061251d612518612513846124f8565b6122fe565b61197b565b9050919050565b61252d81612502565b82525050565b6000819050919050565b600061255861255361254e84612533565b6122fe565b61197b565b9050919050565b6125688161253d565b82525050565b600060e0820190508181036000830152612588818a611a73565b9050818103602083015261259c8189611a73565b90506125ab6040830188611aac565b6125b86060830187612524565b6125c56080830186611c06565b6125d260a083018561255f565b81810360c08301526125e48184611a73565b905098975050505050505050565b7f6e6f7420616c6c6f6177656420796f7520726520206e6f742020766f74696e6760008201527f4f7267616e697a65720000000000000000000000000000000000000000000000602082015250565b600061264e602983611a27565b9150612659826125f2565b604082019050919050565b6000602082019050818103600083015261267d81612641565b9050919050565b6000819050919050565b60006126a96126a461269f84612684565b6122fe565b61197b565b9050919050565b6126b98161268e565b82525050565b600060c08201905081810360008301526126d98189611a73565b905081810360208301526126ed8188611a73565b905081810360408301526127018187611a73565b905061271060608301866126b0565b61271d6080830185611aac565b81810360a083015261272f8184611a73565b905097965050505050505056fea2646970667358221220b1ffc327ce61ece85f1740f62d78032e071cd6a75951345a4d9ae2153966d8cb64736f6c63430008110033",
  "linkReferences": {},
  "deployedLinkReferences": {}
}